:020000040800F2
:100000006005002065010008DB190008C51700081D
:10001000D91900089D020008691D000800000000B1
:10002000000000000000000000000000DF190008D0
:100030009F02000800000000DD190008E119000817
:100040007F0100087F0100087F0100087F01000890
:100050007F0100087F0100087F0100087F01000880
:100060007F0100087F0100087F0100087F01000870
:100070007F0100087F0100087F0100087F01000860
:100080007F0100087F0100087F0100087F01000850
:100090007F0100087F0100087F0100085903000864
:1000A0007F0100087F0100087F0100087F01000830
:1000B000811A00088D1A00087F0100087F010008DE
:1000C0007F0100087F0100087F0100087F01000810
:1000D0007F0100087F0100085D1D00087F01000806
:1000E000510300087F0100087F01000800000000A4
:1000F0000000000000000000000000000000000000
:1001000000000000000000007F0100087F010008DF
:100110007F0100087F0100087F0100087F010008BF
:100120007F0100087F0100087F0100087F010008AF
:100130007F0100087F0100087F0100087F0100089F
:100140007F0100087F0100087F0100087F0100088F
:10015000DFF80CD000F090F8004800477921000843
:10016000600500200648804706480047FEE7FEE796
:10017000FEE7FEE7FEE7FEE7FEE7FEE7FEE7FEE757
:100180002D1A0008510100082DE9F05F05460020F6
:1001900092469B4688460646814640241BE02846F8
:1001A00041464746224600F020F853465A46C01AB8
:1001B000914110D311461846224600F04EF82D1AF0
:1001C00067EB01084F4622460120002100F045F868
:1001D00017EB00094E41201EA4F10104DFDC484664
:1001E00031462A464346BDE8F09F202A04DB203AE8
:1001F00021FA02F00021704721FA02F3D040C2F147
:1002000020029140084319467047D2B201E000F83D
:10021000012B491EFBD270470022F6E710B51346AA
:100220000A4604461946FFF7F0FF204610BD30B5D8
:100230000B46014600202022012409E021FA02F5A4
:100240009D4205D303FA02F5491B04FA02F528443E
:10025000151EA2F10102F1DC30BD202A04DB203A98
:1002600000FA02F1002070479140C2F1200320FA09
:1002700003F3194390407047064C074D06E0E068D1
:1002800040F0010394E8070098471034AC42F6D3DD
:10029000FFF762FFF421000814220008FEE7704710
:1002A00010B5224C062840D2DFE800F03F030516C7
:1002B0002238002233E001228021204600F06AFA31
:1002C00000222021204600F065FA01220821204664
:1002D00000F060FA01221BE001228021204600F09C
:1002E00059FA01222021204600F054FA0022EDE7BD
:1002F00001228021204600F04DFA012220212046D3
:1003000000F048FA01220821204600F043FA0022BA
:100310002046BDE81040042100F03CBA01228021B3
:10032000204600F037FA0122CBE710BD0010014053
:1003300070B5064C05466078401CFFF7B1FF607849
:1003400055F82000BDE8704001F0EABE0000002032
:100350004FF4005000F022B9802000F01FB9704720
:100360002DE9F05F90F821100024022903D0042128
:100370008163012485E001680A6822F00E020A60A8
:1003800001680A6822F001020A603F4E3E4FB21532
:10039000DFF8F4C0DFF8F090DFF8ECA0DFF8E8B0A9
:1003A000DFF8E4E00168783F13011502ACF1640C5A
:1003B000A9F15009AAF13C0AABF1280BAEF1140ED9
:1003C0004FF48018B14227D9B9420ED0614512D0FE
:1003D00049451DD0514518D0594518D0714501D116
:1003E000424615E0294EB14201D1012210E0274ECC
:1003F0001436B14201D110220AE0244E2836B1420F
:1004000006D0224A3C32914201D11A4600E02A46E7
:100410001E49091F0A602BE0B94213D0614517D06D
:10042000494522D051451DD059451DD0714501D1B6
:1004300042461AE0B14202D14FF0807215E0134EED
:10044000B14201D1012210E0104E1436B14201D167
:1004500010220AE00D4E2836B14206D00B4A3C323B
:10046000914201D11A4600E02A46074980394A6084
:10047000012180F82110002180F82010416B01B18A
:1004800088472046BDE8F09F8000024008040240F3
:1004900010B51A4C8028E18801EB4102C2EBC11172
:1004A000628902EBC102217914D0B0F5005F24D13A
:1004B000022001291BD000291FD1207110A116484C
:1004C00001F054FC82B22281BDE810401249134869
:1004D00001F058B9012019B1012904D002290CD129
:1004E00020710FA1EBE70020207114A101E0207121
:1004F0001EA1094801F03AFCE4E710BD000000200D
:100500004C69637A6E696B207A6174727A796D6175
:100510006E792E0A0D000000380000201C0100201A
:1005200054727761206F646D6965727A616E696576
:1005300020637A6173752E2E2E0A0D004C69637A42
:100540006E696B2077797A65726F77616E792E208C
:100550005A6D6965727A6F6E7920637A61733A2099
:100560002564206D732E0A0D000000004C69637A2B
:100570006E696B207A6174727A796D616E792E2062
:100580005A6D6965727A6F6E7920637A61733A2069
:100590002564206D732E0A0D00000000044910B57B
:1005A0000A68024202D00860FFF772FF10BD000027
:1005B000140401402DE9F84FDFF8B891002409F147
:1005C000040A0AF1040B23460F270BF1040EC9E0BD
:1005D0000125A5402A40AA427DD1674ED1F804C02A
:1005E000ACEB0608B44532D014DCBCF1030F3AD0B2
:1005F00009DCBCF1000F2AD0BCF1010F1CD0BCF10A
:10060000020F31D11DE0BCF1110F17D0BCF1120F58
:100610002AD119E0B8F5881F19D006DCB8F5803F5B
:1006200015D0B8F5801F1FD111E0B8F5001F0ED00E
:10063000B8F5041F18D10AE0CB6815E0CB681B1D84
:1006400012E0CB6808330FE0CB680C330CE08B680A
:100650002BB1012B4FF0080303D0456104E00423C4
:1006600002E0056100E00023FF2A01D8064601E010
:1006700000F104064FEA840501D9A5F12005D6F85A
:10068000008007FA05FC28EA0C0803FA05F548EA99
:100690000508C6F800804D68ED0062D5374DAE699B
:1006A00046F00106AE61AD6924F0030605F00105D0
:1006B0000095334D06EB050CDCF80850A607360F05
:1006C00007FA06F825EA0805DFF8B880404503D1A7
:1006D0004FF0000817E044E0DFF8AC80404502D15D
:1006E0004FF001080FE0DFF8A480404502D14FF041
:1006F000020808E0DFF89880404502D14FF0030877
:1007000001E04FF0040808FA06F848EA0508CCF8BA
:1007100008804D68D9F80060ED034D4601D51643B9
:1007200000E096432E604D68DAF80060AD03554650
:1007300001D5164300E096432E604D68DBF800605B
:10074000ED025D4601D5164300E096432E604D68EC
:10075000DEF80060AD02754601D5164300E0964311
:100760002E60641C0D682A46E5407FF431AFBDE879
:10077000F88F00000004014000001110001002403A
:100780000000014000080140000C01400010014041
:10079000001401400AB1016170470904FBE7000041
:1007A00001488068704700001C00002002488168F2
:1007B00002781144816070471C000020074810B582
:1007C000016841F010010160032000F075F800207D
:1007D00000F006F800F024F8002010BD00200240D0
:1007E00070B50D4D04464FF47A712878B1FBF0F0E6
:1007F0000A490968B1FBF0F000F07AFB48B9102C07
:1008000007D200222146501E00F036F800206C600E
:1008100070BD012070BD00001C00002018000020E9
:100820000C4808B5816941F001018161816901F0DD
:1008300001010091C16941F08051C161C06900F0BE
:10084000805000900448416821F0E06141F000715F
:10085000416008BD0010024000000140002809DB93
:1008600000F01F02012191404009800000F1E020CA
:10087000C0F8001170470000F0B40E4B1B680C4626
:10088000C3F30223C3F10705042D00D90425191D64
:10089000072901D2002300E0DB1E012606FA05F13C
:1008A000491E214099409E40761E16403143F0BCBF
:1008B00001F070BA0CED00E0064900F0070208688C
:1008C0004FF6FF03184040EA0220034A1043086035
:1008D000704700000CED00E00000FA052DE9F0473C
:1008E0000F46050061D0434E306800F00700B84263
:1008F00009D2306820F0070038433060306800F0DB
:100900000700B84251D128683B4C810712D54007F7
:1009100003D5606840F4E06060602878000703D584
:10092000606840F4605060606068A96820F0F00082
:10093000084360602878C00728D06868012810D074
:100940002168022810D0890700292EDA616821F079
:10095000030101436160FFF723FF804641F28839BC
:100960000DE021688903EFE78901EDE7FFF718FF44
:10097000A0EB0801494502D90320BDE8F087606873
:10098000696800F00C00B0EB810FEFD1306800F027
:100990000700B8420BD9306820F0070038433060B8
:1009A000306800F00700B84201D00120E5E7287860
:1009B000400705D56068E96820F4E060084360609E
:1009C0002878000706D56068296920F4605040EA5D
:1009D000C100606000F038F86168084AC1F3031193
:1009E000515CC8400649086006480068FFF7F8FEF9
:1009F0000020C2E70020024000100240DC21000875
:100A000018000020200000200448054900684968BB
:100A1000044AC1F30221515CC8407047180000200D
:100A200000100240EC2100080448054900684968AC
:100A3000044AC1F3C221515CC8407047180000202D
:100A400000100240EC210008F0B524A289B00FCAC2
:100A500004AC84E80F0025A10FC98DE80F002748DA
:100A6000416801F00C02042A04D0082A04D024486A
:100A700009B0F0BD2348FBE704AAC1F38343C903CF
:100A8000D45C28D5C16AC26A01F00F011DF80110BB
:100A9000D20316D5C26AC06AC2F30312521CA2FB6B
:100AA0000123C0F30320801CA0FB0415154F002672
:100AB000A1FB070C05FB07C501FB0651FFF764FB13
:100AC00003E010486043B0FBF1F09DF81D10A14217
:100AD000CED14008CCE70C486043C9E700000405CC
:100AE0000607080900000000000D000001020304D1
:100AF00005060708090A0B0C0D0E0F100010024026
:100B000000127A0040787D0100093D002DE9F84F80
:100B1000040070D02078F14DC00749D06868C0F358
:100B20008100012807D06868C0F38100022809D13C
:100B30006868C00306D52868800339D5A0680028F6
:100B4000E7D035E0A068B0F5803F0BD010B1B0F52C
:100B5000A02F11D0286820F480302860286820F465
:100B6000802002E0286840F480302860A06890B1BE
:100B7000FFF716FE06460AE0286840F48020286049
:100B8000F0E700BFFFF70CFE801B642876D82868CA
:100B90008003F7D50CE0FFF703FE064605E000BF33
:100BA000FFF7FEFD801B6428F0D828688003F7D487
:100BB0002078CB4E80074FF001094FF000073AD55F
:100BC000686810F00C0F07D06868C0F38100022835
:100BD00009D16868C00306D42868800715D5606904
:100BE000012808D111E06069B8B1C6F80090FFF79C
:100BF000D7FD804606E042E1FFF7D2FDA0EB0800FA
:100C00000228C3D828688007F6D52868A16920F093
:100C1000F80040EAC10028600DE03760FFF7C0FD32
:100C2000804605E0FFF7BCFDA0EB08000228ADD828
:100C300028688007F6D4207800072ED5A948E169F6
:100C4000E9B1C0F80090FFF7ABFD804606E000BFB9
:100C5000FFF7A6FDA0EB0800022897D8686A800776
:100C6000F6D5A1484FF4FA510068B0FBF1F00090BE
:100C700000BF0098411E0091FAD20EE0B0E007607C
:100C8000FFF78EFD804605E0FFF78AFDA0EB080028
:100C9000022889D8686A8007F6D42078400763D58F
:100CA000E8694FF00008C00009D4E86940F08050BE
:100CB000E861E8694FF0010800F0805000908B482F
:100CC0000168C90512D40168834641F4807101604E
:100CD000FFF766FD824605E0FFF762FDA0EB0A0024
:100CE00064287DD8DBF80000C005F5D5206901280F
:100CF0000AD008B1052813D0286A20F00100286224
:100D0000286A20F0040002E0286A40F0010028620E
:100D1000206941F2883B98B1FFF742FD82460BE023
:100D2000286A40F004002862EEE700BFFFF738FDB4
:100D3000A0EB0A01594553D8286A8007F6D50CE084
:100D4000FFF72EFD824605E0FFF72AFDA0EB0A0122
:100D5000594545D8286A8007F6D4B8F1000F03D06A
:100D6000E86920F08050E861E06AD0B36968C9039F
:100D700007D56968C1F38101022902D1E96AC90373
:100D80007DD4022808D0E86A20F48030E862B76693
:100D9000FFF706FD80463BE02868C00005D5E86AFD
:100DA000616B00F0F000884269D1B766FFF7F8FC8C
:100DB000804605E0FFF7F4FCA0EB0800642874D837
:100DC00028680001F6D4E86A616B20F0F00008435F
:100DD000E862E86A216B20F470600843E86201E091
:100DE00063E018E0C6F86890FFF7DAFC804605E09B
:100DF000FFF7D6FCA0EB0800642856D8286800014D
:100E0000F6D508E0FFF7CCFCA0EB080064284CD82E
:100E100028680001F6D4206A90B36968C1F38101A3
:100E2000022949D00228376603D0FFF7B9FC0446EF
:100E30003EE0FFF7B5FC074605E000BFFFF7B0FC5A
:100E4000C01B022831D828688001F7D4606AB0F549
:100E5000803F09D1E86A61680843E862E86AE168AE
:100E600020F00F000843E862D4E9090108436968EB
:100E700021F4741108436860C6F8609001E028E02E
:100E800029E0FFF78DFC044605E000BFFFF788FC72
:100E9000001B022809D828688001F7D51BE000BF95
:100EA000FFF77EFC001B022802D90320BDE8F88F63
:100EB00028688001F4D40EE00128F7D06868626ADF
:100EC00000F48031914204D1A16A00F4701088428C
:100ED00001D00120EAE70020E8E70000001002400E
:100EE000000042428004424218000020007000408E
:100EF00010B5401EB0F1807F01D3012010BD4FF02E
:100F0000E02460610F21601700F044FF0020A06121
:100F100007202061002010BD7047704770B590F821
:100F20003C20012A19D0012400F83C4F02224270D3
:100F300050F83C3C5A689D6822F070060A6849687F
:100F4000324325F0800529435A6050F83C2C9160CB
:100F5000447000210170084670BD022070BD10B5BC
:100F6000040003D094F83D0010B107E0012010BD4B
:100F7000002084F83C00204600F00CF8022084F8A1
:100F80003D00211D206800F087FD012084F83D0010
:100F9000002010BD08B501681448B1F1804F14D08D
:100FA000134A914220D1C16941F00201C161C06977
:100FB000002200F00200009011461D20FFF75CFCAB
:100FC0001D20BDE80840FFF749BCC16941F001019F
:100FD000C161C069002200F00100009011461C2090
:100FE000FFF74AFC1C20ECE708BD0000001002409F
:100FF000000400400168CA6842F00102CA6000684B
:10100000816801F00701062903D0016841F0010160
:1010100001600020704770B5044690F83C0001283C
:1010200017D0012584F83C50022084F83D00206848
:10103000826822F0770222F47F428260086850289A
:1010400030D00DDC20284DD005DC98B310283BD1E2
:1010500048E0022070BD302844D0402834D139E027
:10106000602828D0702806D0B0F5805F2CD0B0F56D
:10107000005F29D10AE0CB68D1E90121206800F0A6
:1010800049FD2068816841F0770109E0CB68D1E92A
:101090000121206800F03EFD2068816841F4804114
:1010A000816011E0CA684968206800F045FD502160
:1010B000206807E016E0CA684968206800F04DFD26
:1010C0006021206800F030FD84F83D50002084F855
:1010D0003C0070BDCA684968206800F02DFD4021C1
:1010E0002068EFE7226801461046EBE7704770B5CD
:1010F0000446006801694FF00005C943890715D40B
:10110000C168C943890711D4E91E01610120207714
:10111000206880698007204602D0FFF7E7FF04E0DF
:1011200000F098F8204600F096F8257720680169CD
:10113000C943490717D4C168C943490713D46FF09D
:1011400004010161022020772068806910F4407F4B
:10115000204602D0FFF7CAFF04E000F07BF82046EB
:1011600000F079F8257720680169C943090716D48A
:10117000C168C943090712D46FF008010161042056
:1011800020772068C0698007204602D0FFF7AEFFB5
:1011900004E000F05FF8204600F05DF82577206855
:1011A0000169C943C90617D4C168C943C90613D424
:1011B0006FF010010161082020772068C06910F4E9
:1011C000407F204602D0FFF791FF04E000F042F894
:1011D000204600F040F8257720680169C943C90717
:1011E00008D1C168C943C90704D1891E01612046DD
:1011F00000F032F820680169C943090609D4C168C2
:10120000C943090605D46FF0800101612046FFF74C
:1012100083FE20680169C943490609D4C168C943EE
:10122000490605D46FF040010161204600F0AAF89C
:1012300020680169C94389060BD4C168C94389067E
:1012400007D46FF0200101612046BDE87040FFF730
:1012500064BE70BD704770472DE9F04102683648A2
:101260000025364C82420AD1204621794078401C24
:10127000C0B202292FD06070042800D36570B2F18B
:10128000804F57D12078002854D0E0684FF47A710D
:10129000B0FBF1F2B0FBF1F301FB130092B2E2807C
:1012A0000A232749608164280AD9B0FBF3F6B6FB0C
:1012B000F3F703FB1766CE606426B0FBF6F68E608C
:1012C00082B3B2FBF3F603FB1626B2FBF3F348C17D
:1012D000632A12D026E0A178491CC9B2A170642902
:1012E00004D26070042804D1657002E001D90420A2
:1012F0006070C829C3D9A570C0E7A0F54071E7396F
:1013000010D143F2570100EBC1020D480DA110307E
:1013100000F02CFD82B20A4922811031184800F0F9
:1013200031FA2571E068401CA0F5C331E0609F39B7
:1013300000D1E560BDE8F08100040040000000201D
:10134000280000204F736961676E6965746F206DB6
:10135000616B73796D616C6E79207A616B72657304
:101360003A202564206D732E204C69637A6E696B78
:101370002077797A65726F77616E792E0A0D000099
:101380001C0100207047704770B502680446106861
:10139000D168536910F00F0F50D003F0010501F42C
:1013A000907635435DD0C20705D0CA0503D5E26B00
:1013B00042F00102E263420705D5DA0703D0E26B8F
:1013C00042F00202E263820705D5DA0703D0E26B3E
:1013D00042F00402E263020705D5DA0703D0E26BAC
:1013E00042F00802E263E26B002A33D0800604D5A3
:1013F000880602D5204600F0D8FB20684069E16BE2
:10140000C0F38010090700D428B3204600F0BFFBCA
:101410002068416949061AD5416921F040014161BE
:10142000606BA0B11B494163606BFEF799FF002818
:1014300010D0606B416BBDE870400847830610D543
:101440008B060ED52046BDE8704000F0AEBB2046AE
:10145000FFF799FF70BD2046FFF795FF0020E0637E
:1014600070BD030606D50B0604D52046BDE87040C6
:1014700000F042BC4006F3D54806F1D5D1682046BD
:1014800021F04001D160202184F8391000F099F951
:1014900070BD00007F1B000870B5040004D094F8F4
:1014A0003900002510B106E0012070BD84F83850E5
:1014B000204600F023F8242084F839002068C16811
:1014C00021F40051C160204600F0BAFB2068016998
:1014D00021F4904101612068416921F02A014161B4
:1014E0002068C16841F40051C160E563202084F8A0
:1014F000390084F83A00002070BD000030B585B096
:101500000024009401940294039400681B498842CB
:1015100032D11B48C16941F40031C161C16901F494
:1015200000310491816941F0200181618069154D8C
:1015300000F0200004902020009002200190032061
:10154000039069462846FFF735F84020CDE90004AE
:10155000694628460294FFF72DF80B48416841F090
:10156000E06141F008014160002211462620FFF7AA
:1015700083F92620FFF772F905B030BD0044004022
:1015800000100240001401400000014090F83A3081
:10159000202B22D1F9B1F2B190F83830012B1CD0B8
:1015A00081628285C2850021C163222280F83A20AF
:1015B00080F838100168CA6842F48072CA60016815
:1015C0004A6942F001024A610068C16841F02001A5
:1015D000C160002070470120704702207047000062
:1015E00070B5404C002021466279C97804F110059D
:1015F0000D2A06D06A54491CE1702978532908D075
:101600003AE0002201E0A854521C8A42FBDDE0705F
:10161000F3E7697854295DD1A978412902D04F298F
:1016200007D057E0E978522954D12979542903D0B9
:1016300050E0E97850294DD12179012219B10129D1
:1016400007D0022946D1227127A12E4800F08EFB37
:101650000CE02071E08800EB4001C1EBC010618913
:1016600001EBC00228A1274800F080FB82B2228152
:101670002449314800F086F8287850282AD1687823
:10168000412827D1A878552824D1E878532821D19A
:10169000287945281ED121790220012901D071B174
:1016A00018E02071E08800EB4001C1EBC0106189B7
:1016B00001EBC00221A1134800F058FB04E02071A7
:1016C0002AA1104800F052FB82B222810D491A482B
:1016D00000F058F8BDE8704002490122491D164843
:1016E000FFF754BF0000002054727761206F646DD3
:1016F0006965727A616E696520637A6173752E2EF1
:101700002E0A0D00380000204C69637A6E696B2048
:1017100077797A65726F77616E792E205A6D696577
:10172000727A6F6E7920637A61733A202564206D36
:10173000732E0A0D000000001C0100204C69637A22
:101740006E696B207A6174727A796D616E792E2080
:101750005A6D6965727A6F6E7920637A61733A2087
:101760002564206D732E0A0D000000004C69637A19
:101770006E696B207A6174727A796D616E792E0A66
:101780000D00000090F83930202B18D1A9B1A2B17A
:1017900090F83830012B12D001628284C28400217B
:1017A000C163212280F8392080F838100068C168B0
:1017B00041F08001C1600020704701207047022085
:1017C00070477047FEE700002DE9F04786B000241F
:1017D0003A480094019402940394816941F0100105
:1017E0008161816901F010010491816941F040013A
:1017F0008161816901F040010491816941F0040136
:101800008161816901F004010491816941F0200145
:101810008161816901F020010491816941F0080131
:1018200081618069DFF8989000F008000490002240
:10183000AC214846FEF7AEFFDFF888A04FF47F48A2
:10184000002241465046FEF7A5FF1F4D4FF40050C1
:10185000CDE90005694602944846FEF7ABFEAC2090
:1018600001260227CDE90006CDE902476946484630
:10187000FEF7A0FECDF800800397CDE9016469462C
:101880005046FEF797FE8020CDE900056946029498
:101890000E48FEF78FFE002211461720FEF7ECFFE0
:1018A0001720FEF7DBFF002211462820FEF7E4FF99
:1018B0002820FEF7D3FF06B0BDE8F08700100240F5
:1018C000001001400018014000002110000C0140F0
:1018D00010B586B000241748009401940294039434
:1018E00004944FF08041059401603121C0E9011456
:1018F00040F2F311C0E9031480218161FFF72FFB4F
:1019000008B1FEF72CFD4FF480500090694609485D
:10191000FFF781FB08B1FEF722FD049404A90548F6
:101920000594FFF7FBFA002801D0FEF718FD06B07A
:1019300010BD00009C00002010B586B000241748A0
:101940000094019402940394049413490594016053
:101950006321C0E9011440F2E731C0E9031480219A
:101960008161FFF7FCFA08B1FEF7F9FC4FF48050F3
:10197000009069460948FFF74EFB08B1FEF7EFFCFF
:10198000049404A905480594FFF7C8FA002801D07B
:10199000FEF7E5FC06B010BD00040040DC000020AE
:1019A0000C4810B50A4901604FF4E1314160002153
:1019B00081600C22C160C0E904128161C161FFF73E
:1019C0006BFD002803D0BDE81040FEF7C8BC10BD79
:1019D000004400401C010020FEE77047704770473C
:1019E000FEF7E4BE30B593B038216846FEF714FC2C
:1019F00014210EA8FEF710FC0125280400240290F3
:101A0000089400950B946846FFF780F80F200E901D
:101A1000CDE90F54119401210EA81294FEF75EFF38
:101A20000148056713B030BD00004242104801680C
:101A300041F00101016041680E4A114041600168B6
:101A40000D4A11400160016821F480210160416864
:101A500021F4FE014160016821F0A05101604FF4C2
:101A60007F0181600021C1620449C00308607047A2
:101A7000001002400000FFF0FFFFF6FE08ED00E05E
:101A80000148FFF734BB00009C0000200148FFF72D
:101A90002EBB0000DC000020F0B50268194B1A4C88
:101AA0001A4D1B4E4FF08047984207D0B84205D0E0
:101AB000A04203D0A84201D0B04204D122F0700C61
:101AC0004A6842EA0C02984207D0B84205D0A042C8
:101AD00003D0A84201D0B04203D122F44074CA68B6
:101AE00022434C6922F08002224302608A68C2626B
:101AF0000A688262984201D109690163012141614A
:101B0000F0BD0000002C014000040040000800402F
:101B1000000C004010B5846842EA032224F47F449C
:101B20000A432243826010BD826822F070020A4399
:101B300042F007018160704710B5036A046A24F01F
:101B400001040462846924F0F00444EA021423F0DE
:101B50000A020A438461026210BD10B5036A23F0D1
:101B6000100303628369046A23F4704343EA023278
:101B700024F0A00343EA01118261016210BD10B597
:101B8000406A0021C185C184FFF7FDFB10BD0168DB
:101B9000CA6822F49072CA6001684A6922F00102A0
:101BA0004A61202180F83A10704710B590F83A1039
:101BB000222901D0022010BD8168B1F5805F11D0CB
:101BC0000169002901681FD0496801F07F03816A1B
:101BD0004A1C82620B70C18D491E0904090CC18523
:101BE00018D02BE00269816A002A0268526805D089
:101BF000D2B20A80816A491C8162ECE7C2F3080212
:101C00000A80816A891CF7E74A68816A4B1C8362F3
:101C10000A70E0E70168CA6822F02002CA60016821
:101C2000CA6822F48072CA6001684A6922F001021F
:101C30004A61202180F83A10FFF7D2FC002010BD45
:101C40002DE9F041044600680169E26821F4405141
:101C5000114301612169A068084361690843216853
:101C6000CA6841F20C639A430243CA602068416922
:101C7000A26921F44071114341611E492068642525
:101C80003226884202D1FEF7CFFE01E0FEF7BCFE0D
:101C900000EBC00101EB001160686FF018078000D5
:101CA000B1FBF0F2B2FBF5F2B1FBF0F37A4303EBD8
:101CB0008202B1FBF0F306EB0212B2FBF5F2B3FBCA
:101CC000F5F302F0F00202EB0312B1FBF0F3B1FB0B
:101CD000F0F0B0FBF5F0784303EB800006EB00106A
:101CE000B0FBF5F0216800F00F0010448860BDE8FB
:101CF000F08100000038014090F83910212901D00E
:101D0000022070478168B1F5805F016A0BD04A1CE0
:101D10000262026809785160C18C491E0904090CED
:101D2000C1840ED017E009880268C1F30801516030
:101D300001690029016A02D0491C0162ECE7891C93
:101D4000FBE70168CA6822F08002CA600068C168C7
:101D500041F04001C1600020704700000148FFF7DA
:101D600013BB00001C010020FEE700000FB4084B6D
:101D700010B504A902AA039800F02CF8044602A9A1
:101D8000002000F0C8F9204610BC5DF814FB0000EC
:101D9000172100080907090E002804DB00F1E020E4
:101DA00080F80014704700F00F0000F1E02080F888
:101DB000141D704702E008C8121F08C1002AFAD19A
:101DC00070477047002001E001C1121F002AFBD1BB
:101DD000704700002DE9FF4F8BB08846054600266E
:101DE00006E025280BD0DDE90D1290476D1C761C0E
:101DF00028780028F5D10FB03046BDE8F08F0024D8
:101E0000A146A2460122AE4900E0044315F8013F75
:101E1000203B02FA03F00842F7D128782A2810D094
:101E20006FF02F022878A0F13001092915D809EBAD
:101E3000890102EB410144F0020400EB01096D1C31
:101E4000F0E758F8041B5FEA010903D544F4005495
:101E5000C9F1000944F002046D1C28782E2817D11E
:101E600015F8010F44F004042A280ED06FF02F0259
:101E70002878A0F1300109290AD80AEB8A0102EB7F
:101E8000410100EB010A6D1CF2E758F804AB6D1C30
:101E900028786C280FD006DC4C2817D068280DD085
:101EA0006A2814D104E0742810D07A280FD10DE0EC
:101EB00044F400140AE044F4801401E044F44014B3
:101EC0006978814202D104F580146D1C6D1C28785C
:101ED000692865D006DC00288DD0632827D06428C7
:101EE00006D15DE06E2808D073282AD0752877D0F7
:101EF000DDE90D129047761CE0E0C4F302500228A1
:101F000009D003280DD0D8F8001004280DD00E6099
:101F100008F10408D2E0D8F80010F217C1E9006215
:101F2000F6E7D8F800100E80F2E70E70F0E718F828
:101F3000041B8DF8001000208DF80100EB460120F5
:101F400003E058F804BB4FF0FF3061074FF0000783
:101F500001D40AE07F1C57450DDA8742FADB1BF8F3
:101F600007100029F6D106E07F1C8742FCDB1BF836
:101F700007100029F8D1DDE90D23A9EB0700814600
:101F8000214600F0B1F83044C61904E0DDE90D1235
:101F90001BF8010B90477F1EF8D22146484688E087
:101FA00058F8040BC4F302514FF00A0B032900D177
:101FB00000B2042900D140B2002802DA40422D21AB
:101FC00002E0210505D52B218DF82410012104E024
:101FD00006E0E10710D02021F6E708AF089113E0F2
:101FE00058F8040BC4F302514FF00A0B032900D137
:101FF00080B2042900D1C0B20021EEE75946FEF7B5
:1020000016F9303107F8011D0028F7D1ADEB0700B4
:1020100000F1200B600702D524F4803401E04FF07A
:10202000010ADA4502DDAAEB0B0000E0002082463F
:1020300000EB0B0108980144A9EB01000A90E003B2
:1020400006D4DDE90D2321460A9800F04DF8064438
:102050004FF0000908E009A911F80900DDE90D12A7
:10206000904709F10109761C08998945F3DBE003E3
:102070000CD5DDE90D2321460A9800F035F8064419
:1020800004E0DDE90D1230209047761CBAF1000122
:10209000AAF1010AF5DC05E0DDE90D1217F8010BE4
:1020A0009047761CBBF10001ABF1010BF4DC0A9800
:1020B0002146DDE90D2300F005F806446D1C97E686
:1020C000092801002DE9F041044600251E46174667
:1020D000880404D405E039462020B0476D1C641EF6
:1020E000F9D52846BDE8F0812DE9F04104460025E8
:1020F0001E469046C80301D5302700E020278804FB
:1021000004D505E041463846B0476D1C641EF9D53C
:102110002846BDE8F0810A68531C0B6010707047B8
:1021200014490A2824D2DFE800F005080B0E111428
:10213000171A1D204FF4404019E04FF4794016E083
:102140004FF4244013E04FF4304010E04FF41940B6
:102150000DE04FF412400AE04FF4024007E04FF464
:10216000784004E04FF4004001E04FF4184008606C
:10217000704700000C080140FEF720FBFFF732FC1F
:10218000FFF722FBFFF7A4FBFFF70AFCFFF7D4FBE6
:10219000012209490948FFF7F9F90948FEF72AFF22
:1021A0000848FEF727FF044C641F207900F00EF862
:1021B0000548FEF7BDF8F8E7050000201C010020E7
:1021C0009C000020DC00002028000020002B04D10F
:1021D0000021017041708170C170704700000000E3
:1021E00000000000010203040607080900000000C7
:1021F000010203041422000800000020280000004F
:10220000B41D00083C22000828000020380500000A
:10221000C41D0008000000000000000004000000D1
:102220000000000000000000000000000024F40096
:0C22300001000000100000000000000091
:04000005080001519D
:00000001FF
